:100000000C942A000C9447000C9447000C94470071
:100010000C9447000C9447000C9447000C94470044
:100020000C9447000C9447000C9447000C944F0626
:100030000C9447000C9447000C9447000C94470024
:100040000C9447000C9447000C9447000C94470014
:100050000C94470011241FBECFE5D8E0DEBFCDBF12
:1000600010E0A0E6B0E0EEEAF0E202C005900D92EA
:10007000A237B107D9F710E0A2E7B0E001C01D92A6
:10008000A438B107E1F70E94E60F0C9455100C94C8
:100090000000EF92FF920F931F937B018C0120E0F1
:1000A00030E040E05FE40E94490388238CF0C801FF
:1000B000B70120E030E040E05FE40E94C1010E940F
:1000C000A9039B01AC01205030404040504806C07D
:1000D000C801B7010E94A9039B01AC01B901CA0183
:1000E0001F910F91FF90EF900895A0E0B0E0EBE733
:1000F000F0E00C941E10DC012B01FA019C9192306F
:1001000008F439C1EB018881823008F433C194309E
:1001100069F4843009F02FC111969C91119789815F
:10012000981709F428C1A0E6B0E025C1843009F48D
:1001300021C18230A9F4923009F01DC19A01AD01AC
:1001400088E0EA010990AE01E90109929E0181501F
:10015000C1F7E201898111969C918923818308C1AD
:10016000923009F407C112962D903C901397EB0141
:100170008A819B811496AD90BD90CD90DC901797AD
:10018000EC80FD800E811F819101281B390BB90184
:1001900037FF04C066277727621B730B6032710537
:1001A0000CF061C0121613066CF537014801062EDB
:1001B00004C096948794779467940A94D2F721E0C8
:1001C00030E040E050E004C0220F331F441F551FB1
:1001D0006A95D2F721503040404050402E213F21B7
:1001E00040235123211531054105510521F021E01E
:1001F00030E040E050E079018A01E628F72808293C
:1002000019293CC0232BD1F1260E371E350146019A
:10021000062E04C096948794779467940A94D2F734
:1002200021E030E040E050E004C0220F331F441FC3
:10023000551F6A95D2F721503040404050402A2146
:100240003B214C215D21211531054105510521F04E
:1002500021E030E040E050E059016A01A628B728CB
:10026000C828D9280BC0821593052CF01C01AA249C
:10027000BB24650103C0EE24FF24870111969C91E5
:10028000D20111968C91981709F445C0992339F041
:10029000A80197012A193B094C095D0906C0A6016E
:1002A00095012E193F09400B510B57FD08C01182D3
:1002B0003382228224833583468357831DC081E0A5
:1002C00081833382228288279927DC01821B930B4A
:1002D000A40BB50B84839583A683B7830DC0220F2F
:1002E000331F441F551F24833583468357838281E0
:1002F000938101979383828324813581468157813D
:10030000DA01C9010197A109B1098F5F9F4FAF4F72
:10031000BF4328F30BC0918333822282EA0CFB1C7B
:100320000C1D1D1DE482F5820683178383E0808304
:10033000248135814681578157FF1AC0C901AA27F8
:1003400097FDA095BA2F81709070A070B0705695EF
:10035000479537952795822B932BA42BB52B848318
:100360009583A683B7838281938101969383828349
:10037000DF0101C0D201CD01CDB7DEB7E2E10C94BF
:100380003A10A0E2B0E0E7ECF1E00C942A106983A7
:100390007A838B839C832D833E834F835887E9E048
:1003A000EE2EF12CEC0EFD1ECE010196B7010E943F
:1003B000D2048E010F5E1F4FCE010596B8010E9438
:1003C000D2048A8991E089278A8BC701B801AE01DE
:1003D000475E5F4F0E9475000E94FD03A096E6E015
:1003E0000C944610A0E2B0E0E8EFF1E00C942A1083
:1003F00069837A838B839C832D833E834F835887C5
:10040000F9E0EF2EF12CEC0EFD1ECE010196B701A6
:100410000E94D2048E010F5E1F4FCE010596B801D7
:100420000E94D204C701B801AE01475E5F4F0E942F
:1004300075000E94FD03A096E6E00C944610A0E231
:10044000B0E0E5E2F2E00C941E1069837A838B83BE
:100450009C832D833E834F835887CE010196BE0136
:10046000675F7F4F0E94D204CE010596BE016F5E8A
:100470007F4F0E94D2049985923088F0898982301A
:10048000C8F0943019F4823051F404C0843029F457
:10049000923081F480E690E0C6C0923049F420E0CA
:1004A0009A858A89981321E02A87CE010996BBC0D4
:1004B000823049F420E09A858A89981321E02A8BBA
:1004C000CE014196B0C02D843E844F8458886D88FB
:1004D0007E888F88988CEE24FF248701AA24BB2471
:1004E000650140E050E060E070E0E0E0F0E0C10174
:1004F00081709070892BE9F0E60CF71C081D191D1E
:100500009A01AB012A0D3B1D4C1D5D1D80E090E062
:10051000A0E0B0E0E614F7040805190520F481E036
:1005200090E0A0E0B0E0BA01A901480F591F6A1F8E
:100530007B1FAA0CBB1CCC1CDD1C97FE08C081E0F5
:1005400090E0A0E0B0E0A82AB92ACA2ADB2A3196B6
:10055000E032F10549F0660C771C881C991C569412
:10056000479437942794C3CFFA85EA892B893C892D
:100570008B859C85280F391F2E5F3F4F17C0CA01FE
:1005800081709070892B61F016950795F794E79428
:1005900080E090E0A0E0B0E8E82AF92A0A2B1B2BC3
:1005A00076956795579547952F5F3F4F77FDE7CF36
:1005B0000CC0440F551F661F771F17FD4160EE0CDE
:1005C000FF1C001F111F21503040403090E05907A0
:1005D00090E0690790E4790760F32B8F3C8FDB0193
:1005E000CA018F779070A070B07080349105A1051A
:1005F000B10561F447FD0AC0E114F10401051105DC
:1006000029F0405C5F4F6F4F7F4F40781A8EFE1786
:1006100011F081E08A8F4D8F5E8F6F8F78A383E01A
:10062000898FCE0149960E94FD03A096E2E10C94C9
:100630003A10A8E1B0E0EFE1F3E00C942A106983EE
:100640007A838B839C832D833E834F83588789E0F5
:10065000E82EF12CEC0EFD1ECE010196B7010E9492
:10066000D2048E010F5E1F4FCE010596B8010E9485
:10067000D2048985823040F08989823028F0C70110
:10068000B8010E944A0501C08FEF6896E6E00C941D
:100690004610A8E1B0E0EFE4F3E00C942A1069837F
:1006A0007A838B839C832D833E834F83588789E095
:1006B000E82EF12CEC0EFD1ECE010196B7010E9432
:1006C000D2048E010F5E1F4FCE010596B8010E9425
:1006D000D2048985823040F08989823028F0C701B0
:1006E000B8010E944A0501C08FEF6896E6E00C94BD
:1006F0004610A8E1B0E0EFE7F3E00C942A1069831C
:100700007A838B839C832D833E834F83588789E034
:10071000E82EF12CEC0EFD1ECE010196B7010E94D1
:10072000D2048E010F5E1F4FCE010596B8010E94C4
:10073000D2048985823040F08989823028F0C7014F
:10074000B8010E944A0501C081E06896E6E00C9479
:100750004610ACE0B0E0EFEAF3E00C942E106983B1
:100760007A838B839C83CE010196BE016B5F7F4FA2
:100770000E94D2048D81823061F1823050F1843048
:1007800021F48E81882351F12EC02F81388537FDC9
:1007900020C06E812F3131051CF06623F9F023C093
:1007A0008EE190E0821B930B29853A854B855C8511
:1007B00004C056954795379527958A95D2F76623B5
:1007C000B1F050954095309521953F4F4F4F5F4F79
:1007D0000EC020E030E040E050E009C02FEF3FEFD6
:1007E0004FEF5FE704C020E030E040E050E8B9019F
:1007F000CA012C96E2E00C944A10DF92EF92FF922D
:100800000F931F93FC01E480F58006811781D1804E
:100810008081823048F480E090E0A0E1B0E0E82AF6
:10082000F92A0A2B1B2BA5C0843009F49FC0823003
:1008300021F4EE24FF24870105C0E114F104010531
:10084000110519F4E0E0F0E096C0628173819FEF3A
:10085000623879070CF05BC022E83FEF261B370BAC
:100860002A3131052CF020E030E040E050E02AC091
:10087000B801A701022E04C0769567955795479554
:100880000A94D2F781E090E0A0E0B0E004C0880FC5
:10089000991FAA1FBB1F2A95D2F70197A109B10979
:1008A0008E219F21A023B1230097A105B10521F03E
:1008B00081E090E0A0E0B0E09A01AB01282B392B59
:1008C0004A2B5B2BDA01C9018F779070A070B07052
:1008D00080349105A105B10539F427FF09C0205CDA
:1008E0003F4F4F4F5F4F04C0215C3F4F4F4F5F4F13
:1008F000E0E0F0E02030A0E03A07A0E04A07A0E402
:100900005A0710F0E1E0F0E079018A0127C0603871
:10091000710564F5FB01E158FF4FD801C7018F77DE
:100920009070A070B07080349105A105B10539F4C4
:10093000E7FE0DC080E490E0A0E0B0E004C08FE3EB
:1009400090E0A0E0B0E0E80EF91E0A1F1B1F17FFA1
:1009500005C016950795F794E794319687E01695AC
:100960000795F794E7948A95D1F705C0EE24FF2404
:100970008701EFEFF0E06E2F679566276795902F60
:100980009F77D794DD24D7948E2F8695492F462BB9
:10099000582F5D29B701CA011F910F91FF90EF9069
:1009A000DF900895FC01DB01408151812281622F9B
:1009B0006F7770E0221F2227221F9381892F880FD3
:1009C000822B282F30E0991F9927991F11969C930D
:1009D000119721153105A9F54115510561057105DD
:1009E00011F482E037C082E89FEF13969C938E93B8
:1009F00012979A01AB0167E0220F331F441F551F66
:100A00006A95D1F783E08C930DC0220F331F441FEA
:100A1000551F12968D919C911397019713969C9355
:100A20008E931297203080E0380780E0480780E4FA
:100A3000580758F314962D933D934D935C93179755
:100A400008952F3F310579F4411551056105710570
:100A500019F484E08C93089564FF03C081E08C93C3
:100A600012C01C9210C02F57304013963C932E9307
:100A7000129783E08C9387E0440F551F661F771F02
:100A80008A95D1F7706414964D935D936D937C9322
:100A9000179708951F93DC01FB019C91923008F495
:100AA00047C08081823008F443C0943051F41196DD
:100AB0001C91843099F58181682F70E0611B710968
:100AC0003FC0843021F0923031F48230B9F181811D
:100AD000882389F12DC011961C9111978230F1F075
:100AE00081811817D9F412962D913C911397828128
:100AF00093818217930794F028173907BCF0149656
:100B00008D919D910D90BC91A02D248135814681C0
:100B10005781281739074A075B0718F4112341F05A
:100B20000AC082179307A407B50740F4112319F0F0
:100B300061E070E005C06FEF7FEF02C060E070E041
:100B4000CB011F910895DF93CF93CDB7DEB7E3E5D7
:100B5000F0E01082E8E5F0E01082E9E5F0E01082D4
:100B6000A3E5B0E0E3E5F0E08081877F8C93A3E527
:100B7000B0E0E3E5F0E080818F7B8C93A3E5B0E00B
:100B8000E3E5F0E0808180688C93A9E5B0E0E9E5D9
:100B9000F0E0808181608C93CF91DF910895DF93A5
:100BA000CF93CDB7DEB7A8E5B0E0E8E5F0E080810F
:100BB00081608C93E2E5F0E080917A008083A3E588
:100BC000B0E0E3E5F0E0808184608C93A3E5B0E0E1
:100BD000E3E5F0E080818D7F8C93A3E5B0E0E3E571
:100BE000F0E0808181608C93CF91DF910895DF9355
:100BF000CF930F92CDB7DEB7E8E5F0E0808181704A
:100C0000898389810F90CF91DF910895DF93CF93EE
:100C1000CDB7DEB7A3E5B0E0E3E5F0E080818B7F00
:100C20008C93A3E5B0E0E3E5F0E080818D7F8C93C9
:100C3000A3E5B0E0E3E5F0E080818E7F8C93CF9177
:100C4000DF910895DF93CF9300D0CDB7DEB79A83BD
:100C500089830E94A3050E940606109276001092D6
:100C60007700109278001092790089819A812AE0A9
:100C700030E0B9010E940A10CB01CC01A0E0B0E045
:100C80008093720090937300A0937400B0937500EA
:100C90000E94CF050F900F90CF91DF9108951F9282
:100CA0000F920FB60F9211242F933F934F935F93A0
:100CB0006F937F938F939F93AF93BF93EF93FF9324
:100CC000DF93CF93CDB7DEB7809176009091770018
:100CD000A0917800B09179000196A11DB11D80937B
:100CE000760090937700A0937800B09379002091DC
:100CF0007600309177004091780050917900809192
:100D0000720090917300A0917400B0917500281743
:100D100039074A075B0718F40E94CF0505C00E94F7
:100D2000060681E080936F00CF91DF91FF91EF91F4
:100D3000BF91AF919F918F917F916F915F914F91F3
:100D40003F912F910F900FBE0F901F901895DF933A
:100D5000CF93CDB7DEB780916F008823B9F0809133
:100D60008300882399F480916800909169000E9423
:100D7000220610926F0080917000882329F4E09180
:100D80007B00F0917C00099510927000CF91DF916B
:100D90000895DF93CF93CDB7DEB78091830088238A
:100DA00061F080916F00882341F080916A00882F64
:100DB00090E00E94220610926F00CF91DF9108957B
:100DC000DF93CF9300D0CDB7DEB79A838983898133
:100DD0009A8190937C0080937B000F900F90CF912D
:100DE000DF910895DF93CF93CDB7DEB7AFE5B0E0E5
:100DF000EFE5F0E0808180688C93CF91DF910895DA
:100E0000DF93CF93CDB7DEB7AFE5B0E0EFE5F0E02D
:100E100080818F778C93CF91DF910895DF93CF936B
:100E2000CDB7DEB7EAE3F0E01082E7E3F0E010824E
:100E3000E4E3F0E01082E1E3F0E01082CF91DF9193
:100E40000895DF93CF93CDB7DEB72E970FB6F89402
:100E5000DEBF0FBECDBF8A836B834C8381E0898365
:100E60008A81882309F40DC18A81853008F009C17F
:100E70008A81282F30E03E872D878D859E858230A0
:100E8000910509F451C02D853E852330310534F498
:100E90008D859E858130910571F0F1C02D853E854F
:100EA0002330310509F479C08D859E858430910504
:100EB00009F4ACC0E4C08C81282F30E03C872B873C
:100EC0008B859C850097C9F02B853C8521303105A9
:100ED00049F5AAE3B0E0EAE3F0E08081482F8B8196
:100EE000282F30E081E090E0022E02C0880F991F89
:100EF0000A94E2F7842B8C93C5C0AAE3B0E0EAE33E
:100F0000F0E08081482F8B81282F30E081E090E055
:100F1000022E02C0880F991F0A94E2F7809584235D
:100F20008C93B0C01982AEC08C81282F30E03A87F4
:100F3000298789859A850097C9F029853A852130C6
:100F4000310549F5A7E3B0E0E7E3F0E08081482F01
:100F50008B81282F30E081E090E0022E02C0880FC4
:100F6000991F0A94E2F7842B8C938CC0A7E3B0E01E
:100F7000E7E3F0E08081482F8B81282F30E081E08B
:100F800090E0022E02C0880F991F0A94E2F7809524
:100F900084238C9377C0198275C08C81282F30E010
:100FA00038872F838F8198850097C9F02F813885E6
:100FB0002130310549F5A4E3B0E0E4E3F0E08081BD
:100FC000482F8B81282F30E081E090E0022E02C074
:100FD000880F991F0A94E2F7842B8C9353C0A4E3E3
:100FE000B0E0E4E3F0E08081482F8B81282F30E0EF
:100FF00081E090E0022E02C0880F991F0A94E2F768
:10100000809584238C933EC019823CC08C81282F0C
:1010100030E03E832D838D819E810097C9F02D8124
:101020003E812130310549F5A1E3B0E0E1E3F0E094
:101030008081482F8B81282F30E081E090E0022EC4
:1010400002C0880F991F0A94E2F7842B8C931AC070
:10105000A1E3B0E0E1E3F0E08081482F8B81282F0D
:1010600030E081E090E0022E02C0880F991F0A94C0
:10107000E2F7809584238C9305C0198203C01982FE
:1010800001C0198289812E960FB6F894DEBF0FBE7B
:10109000CDBFCF91DF910895DF93CF93CDB7DEB76A
:1010A0002E970FB6F894DEBF0FBECDBF8A836B8339
:1010B0004C8381E089838A81882309F40DC18A8168
:1010C000853008F009C18A81282F30E03E872D87BE
:1010D0008D859E858230910509F451C02D853E8510
:1010E0002330310534F48D859E858130910571F072
:1010F000F1C02D853E852330310509F479C08D85F9
:101100009E858430910509F4ACC0E4C08C81282F01
:1011100030E03C872B878B859C850097C9F02B8519
:101120003C852130310549F5ABE3B0E0EBE3F0E07D
:101130008081482F8B81282F30E081E090E0022EC3
:1011400002C0880F991F0A94E2F7842B8C93C5C0C4
:10115000ABE3B0E0EBE3F0E08081482F8B81282FF8
:1011600030E081E090E0022E02C0880F991F0A94BF
:10117000E2F7809584238C93B0C01982AEC08C8135
:10118000282F30E03A87298789859A850097C9F00A
:1011900029853A852130310549F5A8E3B0E0E8E337
:1011A000F0E08081482F8B81282F30E081E090E0B3
:1011B000022E02C0880F991F0A94E2F7842B8C93A9
:1011C0008CC0A8E3B0E0E8E3F0E08081482F8B8199
:1011D000282F30E081E090E0022E02C0880F991F96
:1011E0000A94E2F7809584238C9377C0198275C0A6
:1011F0008C81282F30E038872F838F819885009746
:10120000C9F02F8138852130310549F5A5E3B0E0DB
:10121000E5E3F0E08081482F8B81282F30E081E0EA
:1012200090E0022E02C0880F991F0A94E2F7842BE7
:101230008C9353C0A5E3B0E0E5E3F0E08081482F54
:101240008B81282F30E081E090E0022E02C0880FD1
:10125000991F0A94E2F7809584238C933EC01982EB
:101260003CC08C81282F30E03E832D838D819E8170
:101270000097C9F02D813E812130310549F5A2E367
:10128000B0E0E2E3F0E08081482F8B81282F30E04E
:1012900081E090E0022E02C0880F991F0A94E2F7C5
:1012A000842B8C931AC0A2E3B0E0E2E3F0E08081EB
:1012B000482F8B81282F30E081E090E0022E02C081
:1012C000880F991F0A94E2F7809584238C9305C0B8
:1012D000198203C0198201C0198289812E960FB626
:1012E000F894DEBF0FBECDBFCF91DF910895DF939D
:1012F000CF93CDB7DEB727970FB6F894DEBF0FBEFA
:10130000CDBF8A836B835D834C8381E089838A812F
:10131000882309F477C08A81853008F073C08A81F8
:10132000282F30E03F832E834E815F81423051056C
:1013300059F18E819F818330910534F42E813F8154
:101340002130310569F05CC04E815F814330510529
:1013500079F18E819F818430910509F43DC050C0A0
:10136000E9E3F0E08081282F30E08B81882F90E046
:10137000A90102C0559547958A95E2F7CA01817087
:10138000EC81FD8180833FC0E6E3F0E08081282F7F
:1013900030E08B81882F90E0A90102C055954795D8
:1013A0008A95E2F7CA018170EC81FD8180832BC0B0
:1013B000E3E3F0E08081282F30E08B81882F90E0FC
:1013C000A90102C0559547958A95E2F7CA01817037
:1013D000EC81FD81808317C0E0E3F0E08081282F5D
:1013E00030E08B81882F90E0A90102C05595479588
:1013F0008A95E2F7CA018170EC81FD81808303C088
:10140000198201C01982898127960FB6F894DEBF30
:101410000FBECDBFCF91DF910895DF93CF9300D062
:1014200000D00F92CDB7DEB78A836B8381E08983CA
:101430008A81882309F476C08A81853008F072C0D9
:101440008A81282F30E03D832C838C819D818230DE
:10145000910551F12C813D812330310534F48C818B
:101460009D818130910561F05BC02C813D812330ED
:10147000310571F18C819D8184309105E9F150C075
:10148000ABE3B0E08B81282F30E081E090E0022ECA
:1014900002C0880F991F0A94E2F7982FEBE3F0E05F
:1014A000808189278C933FC0A8E3B0E08B81282FEF
:1014B00030E081E090E0022E02C0880F991F0A946C
:1014C000E2F7982FE8E3F0E0808189278C932BC026
:1014D000A5E3B0E08B81282F30E081E090E0022E80
:1014E00002C0880F991F0A94E2F7982FE5E3F0E015
:1014F000808189278C9317C0A5E3B0E08B81282FCA
:1015000030E081E090E0022E02C0880F991F0A941B
:10151000E2F7982FE5E3F0E0808189278C9303C000
:10152000198201C0198289810F900F900F900F903E
:101530000F90CF91DF910895DF93CF9300D000D02B
:101540000F92CDB7DEB78A836B8381E089838A816E
:101550008823C9F18A818530B0F58A81282F30E04F
:101560003D832C838C819D8182309105D9F02C8123
:101570003D812330310534F48C819D81813091058A
:1015800061F01FC02C813D812330310581F08C81B9
:101590009D818430910581F014C0EAE3F0E08B81F5
:1015A000808312C0EAE3F0E08B8180830DC0EAE320
:1015B000F0E08B81808308C0EAE3F0E08B818083D8
:1015C00003C0198201C0198289810F900F900F907A
:1015D0000F900F90CF91DF910895DF93CF9300D0BC
:1015E00000D00F92CDB7DEB78A836B8381E0898309
:1015F0008A818823C9F18A818530B0F58A81282FB4
:1016000030E03D832C838C819D8182309105D9F01F
:101610002C813D812330310534F48C819D818130D2
:10162000910561F01FC02C813D812330310581F08F
:101630008C819D818430910581F014C0EBE3F0E052
:101640008B81808312C0E8E3F0E08B8180830DC042
:10165000E5E3F0E08B81808308C0E2E3F0E08B817A
:10166000808303C0198201C0198289810F900F9075
:101670000F900F900F90CF91DF910895DF93CF934C
:10168000CDB7DEB782E066E041E00E944C0882E020
:1016900065E041E00E944C0881E062E041E00E9488
:1016A0004C0881E063E041E00E944C08CF91DF915B
:1016B0000895DF93CF93CDB7DEB782E060E041E0DD
:1016C0000E94210782E061E041E00E94210782E060
:1016D00062E041E00E94210782E064E041E00E9474
:1016E000210782E066E041E00E94210782E065E098
:1016F00041E00E94210781E062E041E00E94210771
:1017000081E063E041E00E94210784E064E041E081
:101710000E9421070E943E0BCF91DF910895AF9266
:10172000CF92EF920F93DF93CF93CDB7DEB7289789
:101730000FB6F894DEBF0FBECDBF89836A834B839B
:101740002C830D83EE82CF82A88682E066E04D81F5
:101750000E944C0882E065E04E810E944C0881E0C6
:1017600062E04F810E944C0881E063E048850E945E
:101770004C0882E060E049810E944C0882E061E010
:101780004A810E944C0882E062E04B810E944C0832
:1017900082E064E04C810E944C0828960FB6F894D1
:1017A000DEBF0FBECDBFCF91DF910F91EF90CF90F5
:1017B000AF900895AF92CF92EF920F93DF93CF93B4
:1017C000CDB7DEB728970FB6F894DEBF0FBECDBFFA
:1017D00089836A834B832C830D83EE82CF82A88614
:1017E000809183008130A9F48D81882319F08E8146
:1017F000882379F480916F00882359F089816A8168
:101800004B812C810D81EE80CF80A8840E948F0BAC
:1018100051C0809183008230A9F48F81882319F010
:101820008885882379F480916F00882359F0898115
:101830006A814B812C810D81EE80CF80A8840E942B
:101840008F0B38C080918300813089F48D8188238B
:1018500071F08E81882359F089816A814B812C81B6
:101860000D81EE80CF80A8840E948F0B23C08091D1
:101870008300823089F48F81882371F088858823E2
:1018800059F089816A814B812C810D81EE80CF8056
:10189000A8840E948F0B0EC080918300882351F48E
:1018A00089816A814B812C810D81EE80CF80A88453
:1018B0000E948F0B28960FB6F894DEBF0FBECDBFE7
:1018C000CF91DF910F91EF90CF90AF900895AF92AD
:1018D000CF92EF920F93DF93CF93CDB7DEB72F97D1
:1018E0000FB6F894DEBF0FBECDBF8A876B8781E04D
:1018F000898718861F821E821D8281E08C8381E089
:101900008B8381E08A8381E089838A85282F30E078
:101910003F872E878E859F858430910509F44BC0C3
:101920002E853F8525303105DCF48E859F858130FD
:101930009105B1F12E853F852230310534F48E8535
:101940009F85009709F454C052C02E853F852230F0
:10195000310549F18E859F858330910539F147C066
:101960002E853F852730310599F18E859F858830FA
:1019700091055CF42E853F8525303105F9F08E8583
:101980009F8586309105F9F032C02E853F8528303D
:10199000310529F18E859F858930910519F127C080
:1019A00081E0888725C081E08F8322C081E088871D
:1019B00088858F831DC081E08E831AC081E088876F
:1019C00088858E8315C081E08F838F818E8310C0C0
:1019D00081E0888788858F838F818E8309C081E02D
:1019E0008D8306C081E0888788858D8301C0198634
:1019F0008B85282F30E03D872C878C859D85813015
:101A00009105B9F02C853D85223031052CF48C856B
:101A10009D85009761F013C02C853D8522303105EE
:101A200051F08C859D858330910539F008C01C826A
:101A300007C01B8205C01A8203C0198201C0198623
:101A40008985813051F488856F814E812D810C818B
:101A5000EB80CA80A9800E94DA0B89852F960FB689
:101A6000F894DEBF0FBECDBFCF91DF910F91EF9005
:101A7000CF90AF900895DF93CF93CDB7DEB76E9739
:101A80000FB6F894DEBF0FBECDBF0E94590BE09198
:101A90007D00F0917E00099580918300813009F0EE
:101AA00088C083E08E8F8E8D882F90E0FC01E559F1
:101AB000FF4F80816E8D0E94670C80E090E0A0E077
:101AC000B0E4898F9A8FAB8FBC8F698D7A8D8B8DA7
:101AD0009C8D20E030E04AE755E40E941F02DC01C3
:101AE000CB018D8B9E8BAF8BB88F6D897E898F8953
:101AF000988D20E030E040E85FE30E94790388237E
:101B00002CF481E090E09C8B8B8B3FC06D897E89AB
:101B10008F89988D20E03FEF4FE757E40E9419032B
:101B200018164CF5698D7A8D8B8D9C8D20E030E0F8
:101B300040E251E40E941F02DC01CB01BC01CD0157
:101B40000E944900DC01CB019C8B8B8B0FC080E98C
:101B500091E09A8B898B89899A890197F1F79A8B01
:101B6000898B8B899C8901979C8B8B8B8B899C891A
:101B7000009769F714C06D897E898F89988D0E94BE
:101B80004900DC01CB019C8B8B8B8B899C89988BCA
:101B90008F878F8598890197F1F7988B8F870E949F
:101BA0003E0B8E8D882309F48BC08E8D81508E8FD5
:101BB0007ACF1D8E81C08D8D882F90E0FC01E55974
:101BC000FF4F80816D8D0E94670C80E090E0A0E067
:101BD000B0E48B879C87AD87BE876B857C858D85C0
:101BE0009E8520E030E04AE755E40E941F02DC01B8
:101BF000CB018F839887A987BA876F81788589857C
:101C00009A8520E030E040E85FE30E947903882372
:101C10002CF481E090E09E838D833FC06F817885B6
:101C200089859A8520E03FEF4FE757E40E9419032A
:101C300018164CF56B857C858D859E8520E030E0FF
:101C400040E251E40E941F02DC01CB01BC01CD0146
:101C50000E944900DC01CB019E838D830FC080E987
:101C600091E09C838B838B819C810197F1F79C830E
:101C70008B838D819E8101979E838D838D819E8133
:101C8000009769F714C06F81788589859A850E94CD
:101C90004900DC01CB019E838D838D819E819A83D7
:101CA000898389819A810197F1F79A8389830E94B8
:101CB0003E0B8D8D8F5F8D8F8D8D843008F47BCFA3
:101CC0006E960FB6F894DEBF0FBECDBFCF91DF91F9
:101CD0000895DF93CF93CDB7DEB780916D00853047
:101CE00059F480916E00893039F410926E00809121
:101CF0006E0080936D0011C080916E00893041F4B8
:101D000080916D008F5F80936D0010926E0005C012
:101D100080916E008F5F80936E00CF91DF91089568
:101D2000DF93CF93CDB7DEB780916D00853009F09A
:101D30004CC080916E00893009F047C080916B00E3
:101D4000823099F480916C00833079F410926E00A7
:101D500080916E0080936D0080916D0080936C0087
:101D600080916C0080936B0041C080916B00823049
:101D700061F480916C008F5F80936C0010926E0014
:101D800080916E0080936D0031C080916C0089302D
:101D900081F480916B008F5F80936B0010926E00D6
:101DA00080916E0080936C0080916C0080936D0038
:101DB0001DC080916C008F5F80936C0010926E004C
:101DC00080916E0080936D0011C080916E0089300B
:101DD00041F480916D008F5F80936D0010926E00D2
:101DE00005C080916E008F5F80936E00CF91DF9170
:101DF0000895DF93CF93CDB7DEB780916B0082302B
:101E000059F480916C00833039F410926C00809109
:101E10006C0080936B0011C080916C00893041F49C
:101E200080916B008F5F80936B0010926C0005C0F7
:101E300080916C008F5F80936C00CF91DF9108954B
:101E4000DF93CF930F92CDB7DEB789830E94590BF2
:101E50008981823019F40E94690E02C00E94F90E35
:101E60000F90CF91DF910895DF93CF9300D0CDB73E
:101E7000DEB79A83898389819A8190937E008093CB
:101E80007D000F900F90CF91DF910895DF93CF9356
:101E9000CDB7DEB784E067E040E00E94210784E030
:101EA00066E040E00E94210783E065E041E00E9497
:101EB0002107CF91DF910895DF93CF9300D000D019
:101EC000CDB7DEB781E08B8381E08C831A821982E3
:101ED000E0918100F091820009959E012D5F3F4FB6
:101EE00084E067E0A9010E9477090AC081E08A8343
:101EF0009E012D5F3F4F84E067E0A9010E947709B2
:101F00008B81882399F39E012C5F3F4F84E066E02C
:101F1000A9010E9477090AC081E089839E012C5F94
:101F20003F4F84E066E0A9010E9477098C818823F5
:101F300099F38A81882391F080918300823019F48B
:101F40001092830005C0809183008F5F809383008F
:101F500081E080936F0081E0809370008981882305
:101F600089F080918300882339F0E0917F00F0911F
:101F7000800080918300099581E080936F0081E06B
:101F8000809370000F900F900F900F90CF91DF9182
:101F90000895DF93CF9300D000D0CDB7DEB79A83FA
:101FA00089837C836B8389819A819093800080935D
:101FB0007F008B819C8190938200809381000F90A1
:101FC0000F900F900F90CF91DF910895DF93CF93F3
:101FD000CDB7DEB70E940E070E94A3050E94590BE1
:101FE0000E94460F0E94F20689EC96E00E94340F90
:101FF00029E53BE080E29FE0B9010E94C90F80E93A
:102000009EE00E94E0060E94A7060E943B0D0E94EF
:102010005C0FF9CFAA1BBB1B51E107C0AA1FBB1F56
:10202000A617B70710F0A61BB70B881F991F5A9564
:10203000A9F780959095BC01CD0108952F923F920C
:102040004F925F926F927F928F929F92AF92BF92C8
:10205000CF92DF92EF92FF920F931F93CF93DF9374
:10206000CDB7DEB7CA1BDB0B0FB6F894DEBF0FBED1
:10207000CDBF09942A88398848885F846E847D841E
:102080008C849B84AA84B984C884DF80EE80FD8020
:102090000C811B81AA81B981CE0FD11D0FB6F89496
:0E20A000DEBF0FBECDBFED010895F894FFCF57
:1020AE000000000000000000A08C140203050501D2
:0220BE0001001F
:00000001FF
